{
  "contractName": "SlotMachine",
  "abi": [
    {
      "inputs": [],
      "payable": false,
      "stateMutability": "nonpayable",
      "type": "constructor"
    },
    {
      "anonymous": false,
      "inputs": [
        {
          "indexed": false,
          "internalType": "address",
          "name": "sender",
          "type": "address"
        },
        {
          "indexed": false,
          "internalType": "uint256",
          "name": "rand1",
          "type": "uint256"
        },
        {
          "indexed": false,
          "internalType": "uint256",
          "name": "rand2",
          "type": "uint256"
        },
        {
          "indexed": false,
          "internalType": "uint256",
          "name": "rand3",
          "type": "uint256"
        }
      ],
      "name": "Rolled",
      "type": "event"
    },
    {
      "payable": true,
      "stateMutability": "payable",
      "type": "fallback"
    },
    {
      "constant": true,
      "inputs": [],
      "name": "coinPrice",
      "outputs": [
        {
          "internalType": "uint256",
          "name": "",
          "type": "uint256"
        }
      ],
      "payable": false,
      "stateMutability": "view",
      "type": "function"
    },
    {
      "constant": true,
      "inputs": [],
      "name": "slotMachineFunds",
      "outputs": [
        {
          "internalType": "address",
          "name": "",
          "type": "address"
        }
      ],
      "payable": false,
      "stateMutability": "view",
      "type": "function"
    },
    {
      "constant": false,
      "inputs": [],
      "name": "oneRoll",
      "outputs": [],
      "payable": true,
      "stateMutability": "payable",
      "type": "function"
    },
    {
      "constant": true,
      "inputs": [],
      "name": "contractBalance",
      "outputs": [
        {
          "internalType": "uint256",
          "name": "",
          "type": "uint256"
        }
      ],
      "payable": false,
      "stateMutability": "view",
      "type": "function"
    },
    {
      "constant": true,
      "inputs": [
        {
          "internalType": "uint256",
          "name": "rand1",
          "type": "uint256"
        },
        {
          "internalType": "uint256",
          "name": "rand2",
          "type": "uint256"
        },
        {
          "internalType": "uint256",
          "name": "rand3",
          "type": "uint256"
        }
      ],
      "name": "calculatePrize",
      "outputs": [
        {
          "internalType": "uint256",
          "name": "",
          "type": "uint256"
        }
      ],
      "payable": false,
      "stateMutability": "view",
      "type": "function"
    },
    {
      "constant": false,
      "inputs": [],
      "name": "withdraw",
      "outputs": [],
      "payable": false,
      "stateMutability": "nonpayable",
      "type": "function"
    },
    {
      "constant": true,
      "inputs": [
        {
          "internalType": "address",
          "name": "user",
          "type": "address"
        }
      ],
      "name": "balanceOf",
      "outputs": [
        {
          "internalType": "uint256",
          "name": "",
          "type": "uint256"
        }
      ],
      "payable": false,
      "stateMutability": "view",
      "type": "function"
    },
    {
      "constant": false,
      "inputs": [
        {
          "internalType": "uint256",
          "name": "_coinPrice",
          "type": "uint256"
        }
      ],
      "name": "setCoinPrice",
      "outputs": [],
      "payable": false,
      "stateMutability": "nonpayable",
      "type": "function"
    },
    {
      "constant": false,
      "inputs": [
        {
          "internalType": "uint256",
          "name": "_amount",
          "type": "uint256"
        }
      ],
      "name": "cashout",
      "outputs": [],
      "payable": false,
      "stateMutability": "nonpayable",
      "type": "function"
    }
  ],
  "bytecode": "0x608060405267016345785d8a000060015534801561001c57600080fd5b5033600260006101000a81548173ffffffffffffffffffffffffffffffffffffffff021916908373ffffffffffffffffffffffffffffffffffffffff1602179055506108278061006d6000396000f3fe6080604052600436106100865760003560e01c8063731bedd011610059578063731bedd0146101fc5780638b7afe2e14610253578063a9e2bcfe1461027e578063a9e732bb14610288578063ad0f2916146102c357610086565b806326e90775146100e25780633ccfd60b14610145578063550b47b81461015c57806370a0823114610197575b3373ffffffffffffffffffffffffffffffffffffffff16600260009054906101000a900473ffffffffffffffffffffffffffffffffffffffff1673ffffffffffffffffffffffffffffffffffffffff16146100e057600080fd5b005b3480156100ee57600080fd5b5061012f6004803603606081101561010557600080fd5b810190808035906020019092919080359060200190929190803590602001909291905050506102ee565b6040518082815260200191505060405180910390f35b34801561015157600080fd5b5061015a610436565b005b34801561016857600080fd5b506101956004803603602081101561017f57600080fd5b8101908080359060200190929190505050610509565b005b3480156101a357600080fd5b506101e6600480360360208110156101ba57600080fd5b81019080803573ffffffffffffffffffffffffffffffffffffffff16906020019092919050505061056d565b6040518082815260200191505060405180910390f35b34801561020857600080fd5b506102116105b6565b604051808273ffffffffffffffffffffffffffffffffffffffff1673ffffffffffffffffffffffffffffffffffffffff16815260200191505060405180910390f35b34801561025f57600080fd5b506102686105db565b6040518082815260200191505060405180910390f35b6102866105e3565b005b34801561029457600080fd5b506102c1600480360360208110156102ab57600080fd5b81019080803590602001909291905050506106fc565b005b3480156102cf57600080fd5b506102d86107a0565b6040518082815260200191505060405180910390f35b60006005841480156103005750600583145b801561030c5750600582145b1561031e57601e60015402905061042f565b60068414801561032e5750600583145b801561033a5750600682145b1561034c57601460015402905061042f565b60048414801561035c5750600483145b80156103685750600482145b1561037a57600f60015402905061042f565b60038414801561038a5750600383145b80156103965750600382145b156103a857600c60015402905061042f565b6002841480156103b85750600283145b80156103c45750600282145b156103d657600a60015402905061042f565b6001841480156103e65750600183145b80156103f25750600182145b1561040457600560015402905061042f565b8284148061041157508184145b8061041b57508183145b1561042a57600154905061042f565b600090505b9392505050565b6000600360003373ffffffffffffffffffffffffffffffffffffffff1673ffffffffffffffffffffffffffffffffffffffff1681526020019081526020016000205490506000600360003373ffffffffffffffffffffffffffffffffffffffff1673ffffffffffffffffffffffffffffffffffffffff168152602001908152602001600020819055503373ffffffffffffffffffffffffffffffffffffffff166108fc829081150290604051600060405180830381858888f19350505050158015610505573d6000803e3d6000fd5b5050565b3373ffffffffffffffffffffffffffffffffffffffff16600260009054906101000a900473ffffffffffffffffffffffffffffffffffffffff1673ffffffffffffffffffffffffffffffffffffffff161461056357600080fd5b8060018190555050565b6000600360008373ffffffffffffffffffffffffffffffffffffffff1673ffffffffffffffffffffffffffffffffffffffff168152602001908152602001600020549050919050565b6000809054906101000a900473ffffffffffffffffffffffffffffffffffffffff1681565b600047905090565b6001543410156105f257600080fd5b60006105fd346107a6565b9050600061060d600a34016107a6565b9050600061061d601434016107a6565b9050600061062c8484846102ee565b90507f0d5c4756b6fa55030838b26a5949ffb7780d2ddb43de720b9cbc14fb3937906f33858585604051808573ffffffffffffffffffffffffffffffffffffffff1673ffffffffffffffffffffffffffffffffffffffff16815260200184815260200183815260200182815260200194505050505060405180910390a180600360003373ffffffffffffffffffffffffffffffffffffffff1673ffffffffffffffffffffffffffffffffffffffff1681526020019081526020016000206000828254019250508190555050505050565b3373ffffffffffffffffffffffffffffffffffffffff16600260009054906101000a900473ffffffffffffffffffffffffffffffffffffffff1673ffffffffffffffffffffffffffffffffffffffff161461075657600080fd5b3373ffffffffffffffffffffffffffffffffffffffff166108fc829081150290604051600060405180830381858888f1935050505015801561079c573d6000803e3d6000fd5b5050565b60015481565b60006001600660014303408460405160200180838152602001828152602001925050506040516020818303038152906040528051906020012060001c816107e957fe5b0601905091905056fea265627a7a723158207f326907c177b46c93d00a919801ac435156a9b4a84b8b2b743a5f0cf5d3cb9464736f6c63430005100032",
  "source": "pragma solidity ^0.5.16;\n\ncontract SlotMachine {\n\n    address public slotMachineFunds;\n\n    uint256 public coinPrice = 0.1 ether;\n\n    address owner;\n\n    event Rolled(address sender, uint rand1, uint rand2, uint rand3);\n\n    mapping (address => uint) pendingWithdrawals;\n\n    modifier onlyOwner() {\n        require(owner == msg.sender);\n        _;\n    }\n\n    constructor() public {\n        owner = msg.sender;\n    }\n\n    //the user plays one roll of the machine putting in money for the win\n    function oneRoll() public payable {\n        require(msg.value >= coinPrice);\n\n        uint rand1 = randomGen(msg.value);\n        uint rand2 = randomGen(msg.value + 10);\n        uint rand3 = randomGen(msg.value + 20);\n\n        uint result = calculatePrize(rand1, rand2, rand3);\n\n        emit Rolled(msg.sender, rand1, rand2, rand3);\n\n        pendingWithdrawals[msg.sender] += result;\n        \n    }\n    \n    function contractBalance() public view returns(uint) {\n        return address(this).balance;\n    }\n\n    function calculatePrize(uint rand1, uint rand2, uint rand3) public view returns(uint) {\n        if(rand1 == 5 && rand2 == 5 && rand3 == 5) {\n            return coinPrice * 30;\n        } else if (rand1 == 6 && rand2 == 5 && rand3 == 6) {\n            return coinPrice * 20;\n        } else if (rand1 == 4 && rand2 == 4 && rand3 == 4) {\n            return coinPrice * 15;\n        } else if (rand1 == 3 && rand2 == 3 && rand3 == 3) {\n            return coinPrice * 12;\n        } else if (rand1 == 2 && rand2 == 2 && rand3 == 2) {\n            return coinPrice * 10;\n        } else if (rand1 == 1 && rand2 == 1 && rand3 == 1) {\n            return coinPrice * 5;\n        } else if ((rand1 == rand2) || (rand1 == rand3) || (rand2 == rand3)) {\n            return coinPrice;\n        } else {\n            return 0;\n        }\n    }\n\n    function withdraw() public {\n        uint amount = pendingWithdrawals[msg.sender];\n\n        pendingWithdrawals[msg.sender] = 0;\n\n        msg.sender.transfer(amount);\n    }\n\n    function balanceOf(address user) public view returns(uint) {\n        return pendingWithdrawals[user];\n    }\n\n    function setCoinPrice(uint _coinPrice) public onlyOwner {\n        coinPrice = _coinPrice;\n    }\n\n    function() onlyOwner external payable {\n    }\n\n    function cashout(uint _amount) public onlyOwner {\n        msg.sender.transfer(_amount);\n    }\n\n    function randomGen(uint seed) private view returns (uint randomNumber) {\n        return (uint(keccak256(abi.encodePacked(blockhash(block.number-1), seed ))) % 6) + 1;\n    }\n\n}\n",
  "sourcePath": "/Users/nic/Workspace/ethereum-slot-machine/contracts/SlotMachine.sol",
  "compiler": {
    "name": "solc",
    "version": "0.5.16+commit.9c3226ce.Emscripten.clang"
  },
  "schemaVersion": "3.4.9",
  "updatedAt": "2022-08-24T07:03:39.776Z",
  "networkType": "ethereum",
  "devdoc": {
    "methods": {}
  },
  "userdoc": {
    "methods": {}
  }
}